:040000008031112812
:10000800803120007F08F0008B1A0B1D0D288131EC
:10001800EE2170082000FF00090080311328FB0141
:10002800AA01AB01AC01AD01AE01DB308400813027
:10003800850020308600003087000A308131F521A4
:1000480020008031D928E830F1000330F2007A0826
:10005800F4007908F30081310E2180317108200005
:10006800B2003208FB00E830F1000330F2007A08F1
:10007800F4007908F3008131422180317208FA00D6
:100088007108F9006430F1000030F2007A08F400D9
:100098007908F30081310E21803171082000B20007
:1000A8003208AC006430F1000030F2007A08F40045
:1000B8007908F3008131422180317208FA00710811
:1000C800F9000A30F1000030F2007A08F4007908EB
:1000D800F30081310E21803171082000B20032080E
:1000E800AD000A30F1000030F2007A08F400790817
:1000F800F30081314221803171082000B2003208BA
:10010800AE0022008E150E167B08203E8600870161
:10011800010881316E21803107302000B3007D3025
:10012800B200B20B9528B30B952822008E110E163B
:1001380020002C08203E86008701010881316E21AD
:10014800803107302000B3007D30B200B20BAA28FE
:10015800B30BAA2822008E150E1220002D08203E6F
:1001680086008701010881316E2180310730200027
:10017800B3007D30B200B20BBF28B30BBF282200FA
:100188008E110E1220002E08203E860087010108DD
:1001980081316E21803107302000B3007D30B200FC
:1001A800B20BD428B30BD42808008131E521803163
:1001B80021008E0122008E011E302000AF00003089
:1001C800B0008B170B1701302000AA070030AB3D99
:1001D80000302B02323003192A02031C0529AA0118
:1001E800AB012F0830040319FE280130AF0200309C
:1001F800B03B02291E30AF000030B0008131BA2177
:10020800803120003008FA002F08F90080312720BB
:100218008031E728F601F7017108720403193D29B6
:10022800F801F80AF21B22290130F135F20D890B89
:1002380019290130F5007508F80716290130F63537
:10024800F70D890B232972087402031D2D297108E3
:100258007302031C34297108F3027208F43B761404
:100268000130F236F10C890B35290130F802031DF3
:1002780022297708F2007608F10008007108720454
:1002880003196929F601F60AF21B54290130F135E0
:10029800F20D890B4B290130F5007508F60748293E
:1002A80072087402031D5A2971087302031C60291D
:1002B8007108F3027208F43B0130F236F10C890B35
:1002C80061290130F602031D54297408F2007308ED
:1002D800F1000800F20022008E138E128E138E1287
:1002E800F30108307302031893297208F100730AA6
:1002F8007E29F136890B7D29711C852922000E176C
:10030800872922000E138E178E178E138E13013035
:10031800F1007108F30708307302031C79298E165F
:100328008E16080022008C013F3021008C00173007
:1003380023008C0024008C0122008D01F030210064
:100348008D00F03023008D0024008D0122008E01E5
:10035800E73021008E00C73023008E0024008E0174
:100368002100951722009D019E01080022000E150C
:100378000630F3001330F200B130F100F10BC2295E
:10038800F20BC229F30BC229003222000E11080019
:1003980021001508C0393738950003302000950032
:1003A8000330F1007108B1000B118B1608000334FB
:1003B8009F3425340D349934493441341F34013481
:1003C80009348131FB21813181319621813181319B
:1003D800CC2108000B1D08002000310895000B11E6
:1003E8000800FE0012001E00FE0BF62900346A30D9
:0A03F800210099009A019801080005
:020000040001F9
:04000E00E4FFFFDE2E
:00000001FF
